:100000001DC037C036C035C034C0E7C032C031C0B3
:1000100030C02FC02EC02DC02AC12BC02AC0000066
:100020000000370000000000380002020202020255
:1000300001020408102001030000040011241FBE67
:10004000CFE5D2E0DEBFCDBF10E0A0E6B0E0EEEB42
:10005000F3E002C005900D92A837B107D9F720E070
:10006000A8E7B0E001C01D92A238B207E1F709D1BC
:10007000A4C1C6CFF894A895662331F098E191BD4C
:100080008823B1F087E481BD789485B7877E85BFEA
:1000900085B7806285BF889585B78F7D85BF0FB690
:1000A000F894A89581B5886181BD11BC0FBE0895F3
:1000B00083E4E9CF3FB7F89480917E0090917F0070
:1000C000A0918000B091810022B708B601FE05C062
:1000D0002F3F19F00196A11DB11D3FBFBA2FA92FC7
:1000E000982F8827BC01CD01620F711D811D911DC4
:1000F00043E0660F771F881F991F4A95D1F708952F
:1001000090E0FC01EA5CFF4F3491FC01E05DFF4FA1
:100110002491FC01E65DFF4FE491EE23B9F0332317
:1001200029F03130A1F48AB58F778ABDF0E0EE0F67
:10013000FF1FEC5DFF4FA591B4918FB7611118C0FF
:10014000F894EC9120952E232C938FBF0895323094
:1001500019F48AB58F7DE9CF333021F480B78F7DD4
:1001600080BFE4CF343011F78CB58F7D8CBDDECFEE
:10017000F894EC912E2BE8CFCF93DF9390E0FC0125
:10018000E05DFF4F2491865D9F4FFC0184918823A1
:10019000D1F090E0880F991FFC01E25EFF4FA5911E
:1001A000B491FC01EC5DFF4FC591D491623071F4C4
:1001B0009FB7F8943C91822F809583238C93E8819C
:1001C0002E2B28839FBFDF91CF9108958FB7F8948E
:1001D000EC912E2B2C938FBFF6CF1F920F920FB660
:1001E0000F9211242F933F938F939F93AF93BF93BD
:1001F00080917A0090917B00A0917C00B0917D006D
:100200003091790026E0230F2D3768F129E8230F7C
:100210000396A11DB11D2093790080937A009093DD
:100220007B00A0937C00B0937D0080917E00909134
:100230007F00A0918000B09181000196A11DB11DA9
:1002400080937E0090937F00A0938000B093810004
:10025000BF91AF919F918F913F912F910F900FBEC2
:100260000F901F9018950296A11DB11DD4CF1F921B
:100270000F920FB60F9211240F900FBE0F901F9088
:10028000189583E08ABD83BF789489B7826089BF5F
:1002900080E48CBD8FEF8DBD87EC80BF86E886B98A
:1002A00062E083E069DFB39B44C061E080E064DF2B
:1002B00061E081E061DF61E084E05EDF90E080E0AA
:1002C00055D080937800883008F04DC06091780058
:1002D0006F5F90E080E052D010917800812F90E025
:1002E00063E070E059D0EC01C05ADF4F688180E0D4
:1002F00007DF698181E004DF6A8184E001DF173074
:1003000019F460E080E0B6DE61E080E0B3DE60E03A
:1003100080E0F6DE60E081E0F3DE60E084E0F0DEC5
:1003200061E081E0A7DED8CFC114D104E104F1047B
:1003300039F4C0DEEB0184E6C82ED12CE12CF12C7F
:10034000B9DE6C1B7D0B683E734070F3C114D104A1
:10035000E104F10471F381E0C81AD108E108F10861
:10036000C851DC4FEDCF10927800B0CFE199FECFAD
:100370009FBB8EBBE09A99278DB30895262FE199F4
:10038000FECF1CBA9FBB8EBB2DBB0FB6F894E29A72
:10039000E19A0FBE019608950024552704C0080E67
:1003A000591F880F991F009729F076956795B8F324
:0E03B0007105B9F7802D952F0895F894FFCFB1
:1003BE000100000001000000010101000001010127
:0803CE00000101010101010120
:00000001FF
