:1000000094C2B8C2B7C2B6C2B5C2BAC5B3C2B2C250
:10001000B1C2B0C2AFC2AEC2ADC276C6FBC50702A6
:100020000607050708030404070703060207060579
:100030000606060606060606020206070606070864
:100040000707070707070805070707070807070740
:100050000806070808070807070406060508030737
:100060000706070607060805050705080806070727
:100070000706050808080608060401040755005885
:100080000071006D0065005C0000000000000000D1
:1000900000000000000000F8003330100C06100CC7
:1000A0000600000000000040C07840C07840043FD7
:1000B00004043F04047088FC08301820FF211EF05F
:1000C00008F000E0180000211C031E211E00F008AB
:1000D00088700000001E2123241927211010160EFD
:1000E000000000E018040207182040020418E04055
:1000F000201807404080F08040400202010F0102BA
:1001000002000000F00000000101011F01010100D8
:10011000000080B07000000000000001010101013A
:1001200001000030300000008060180460180601F3
:10013000000000E010080810E00F102020100F1041
:1001400010F8000020203F20207008080888703038
:100150002824222130300888884830182020201197
:100160000E00C02010F800070424243F24F808885B
:1001700088080819212020110EE010888818000F27
:10018000112020110E380808C8380800003F000070
:10019000007088080888701C222121221CE01008A9
:1001A0000810E000312222110FC0C03030008080E2
:1001B00060008040201008010204081020404040E8
:1001C000404040400404040404040408102040801B
:1001D000002010080402017048080808F0000030F0
:1001E000360100C030C828E810E00718272423147F
:1001F0000B0000C038E0000000203C23020227383A
:100200002008F88888887000203F202020110EC028
:100210003008080808380718202020100808F808B7
:10022000080810E0203F202020100F08F88888E8F8
:100230000810203F202023201808F88888E808109C
:10024000203F2000030000C03008080838000718CD
:100250002020221E0208F808000008F808203F218C
:100260000101213F200808F8080820203F20200035
:10027000000808F80808C08080807F000008F8881F
:10028000C0281808203F200126382008F808000060
:100290000000203F202020203008F8F800F8F8085F
:1002A000203F003F003F2008F830C00008F8082039
:1002B0003F200007183F00E01008080810E00F106A
:1002C000202020100F08F808080808F0203F21011E
:1002D000010100E01008080810E00F18242438502D
:1002E0004F08F8888888887000203F2000030C3071
:1002F0002070880808083838202121221C18080896
:10030000F80808180000203F20000008F808000046
:1003100008F808001F202020201F0008788800000F
:10032000C83808000007380E010000F80800F8007F
:1003300008F8033C0700073C030818688080681829
:100340000820302C03032C30200838C800C8380897
:100350000000203F20000010080808C83808203896
:100360002621202018FE0202027F4040400C30C0AF
:100370000000000000010638C0020202FE0000403A
:1003800040407F0000040202020400000000000060
:10039000000000000000008080808080808080025B
:1003A00002040000000080808080000019242222C6
:1003B000223F2008F80080800000003F112020111B
:1003C0000E0000808080000E11202020110000808F
:1003D0008088F8000E112020103F2000808080804F
:1003E000001F22222222138080F088888818202073
:1003F0003F202000000080808080806B9494949344
:100400006008F8008080800000203F210000203F2D
:1004100020809898000020203F202000008098989D
:10042000C08080807F08F80000808080203F240208
:100430002D30200808F8000020203F2020808080F8
:100440008080808000203F20003F20003F8080008F
:100450008080800000203F210000203F200080801D
:100460008080001F202020201F80800080800000CE
:1004700080FFA12020110E000080808080000E11DE
:100480002020A0FF808080800080808020203F216D
:10049000200001008080808080332424242419805F
:1004A00080E0808000001F2020808000000080808D
:1004B00000001F202020103F2080808000008080CE
:1004C0008000010E300806010080800080008080DE
:1004D000800F300C030C300F008080008080802063
:1004E000312E0E3120808080000080808080818EBF
:1004F000701806010080808080808021302C2221AD
:1005000030807C0202003F4040FFFF02027C8040BE
:10051000403F000601010202040400000000000048
:1005200000C8A1AD308D1400400811241FBECFE5D6
:10053000D2E0DEBFCDBF20E0ACE9B0E001C01D924B
:10054000A03FB207E1F710E0A0E6B0E0EEE7F1E18E
:1005500002C005900D92AC39B107D9F712E0C5E998
:10056000D2E003C02197FE01FED5C439D107D1F7EF
:1005700058D403C645CD3FB7F8948091E3009091DD
:10058000E400A091E500B091E60022B708B601FEB4
:1005900005C02F3F19F00196A11DB11D3FBFBA2F15
:1005A000A92F982F8827BC01CD01620F711D811DD5
:1005B000911D43E0660F771F881F991F4A95D1F759
:1005C0000895CF92DF92EF92FF92CF93DF936B016A
:1005D0007C01D1DFEB01CFDF6C1B7D0B683E7340EC
:1005E000A0F0C114D104E104F10439F4DF91CF91FA
:1005F000FF90EF90DF90CF90089581E0C81AD10866
:10060000E108F108C851DC4FE6CFC114D104E10480
:10061000F10409F7EBCFCF92DF92EF92FF920F93A5
:100620001F93CF93DF936C01EB017B01E40EF51E6A
:1006300010E000E0CE15DF0561F06991D601ED9183
:10064000FC910190F081E02DC6010995080F191F5A
:10065000F1CFC801DF91CF911F910F91FF90EF90E3
:10066000DF90CF900895E091D500F091D6002091D1
:10067000D7003091D800A90141705527309719F45F
:100680004115510579F035952795820F931F452B1C
:1006900041F0DC012D913C91E20FF31F0190F081BC
:1006A000E02D099581E090E00895DDCFE091C9004B
:1006B000F091CA000994E091C700F091C800099434
:1006C000E091C500F091C6000994CF93C82FF3DFE5
:1006D000811106C0EBDFF4DF80E4EDDF8C2FEBDF70
:1006E0008091E7008F5F8093E700CF910895E8DF66
:1006F00080E0E1CF0F931F93CF93DF93082F162F46
:10070000D091EB00D80FC091EA00C60FC770C06B44
:10071000EEDF8C2FD0DF8D2F82958F708061CBDF45
:100720008D2F8F70C8DFC2DF0093E9001093E800BF
:100730001092E700DF91CF911F910F910895809162
:10074000D00001C0660F8A95EAF79091E800960FF5
:100750009093E80080916100482F461B550B941739
:10076000150621F01CF0861B8093E8006091E800DC
:1007700080E0C0CFAF92BF92CF92DF92EF92FF9214
:100780000F931F93CF93DF93A091CE00B091CF0032
:1007900012961C911297C62FD0E011110DC014961D
:1007A0002C911497AE01421B51091896ED91FC91C2
:1007B0001997E40FF51F14911396BC900091CD008A
:1007C000E12EF12C4091E9002091600030E02E19DB
:1007D0003F094217130619F014F06B2DB0DF80911A
:1007E000E9008E0D9F2D911D800F911D20916000BD
:1007F000281719060CF400E0A091CE00B091CF00AC
:1008000014968C911497C81BD10971F012968C9193
:10081000129713966C91139770E08823C9F090E0BB
:100820006FD4BE016DD4EC01AB2C4ADF80E443DF12
:10083000CE01282F2C1B211708F438C0CE0DDF1D48
:10084000D12C0D1509F443C080E03FDFD394F9CFDC
:10085000AE01F4E056954795FA95E1F730E020E0D7
:1008600090E080E04217530781F06901CC0CDD1C59
:100870001696ED91FC911797EC0DFD1DC590D49047
:100880008C0D9D1D2F5F3F4FEDCF9E01207F2C17BC
:100890003D0740F61896ED91FC911997E20FF31F72
:1008A000E4918E0F911D2F5F3F4FF1CF6C012FEF21
:1008B000C21AD20AE091CE00F091CF000190F081EF
:1008C000E02DE80FF91F849100DFC601B2CFEEDE04
:1008D0006091E80031E06F5F8091E9003A1528F0FF
:1008E0006B198091E900810F800F04DFAA94A11099
:1008F0009CCFDF91CF911F910F91FF90EF90DF90F0
:10090000CF90BF90AF9008956D3031F1E091CE005F
:10091000F091CF006A3011F4638111CF2481621706
:10092000D8F025812617C0F02091D3003091D40053
:10093000A90155954795840F951FE091D100F0913D
:10094000D20020FF08C0DC012D913C91E20FF31F83
:100950000190F081E02D099408958EB938E28BE280
:1009600020E2932F9A95F1F78DB9B29BFECF922F8B
:100970009A95F1F78DB9769BF4CF88E28A95F1F7D5
:100980008FB19FEF9FB9B89A089581E08093BD0021
:1009900098E790939C008093BF008093BE000895D9
:1009A0000F931F93CF93DF93C091BE0081E080939C
:1009B000BC0080919C0080FD03C083E08093BC005C
:1009C000C29AB29BFECF88E28A95F1F7C09880E286
:1009D0008A95F1F7C298C09A77991CC087E08093F6
:1009E000BC0080E01092BF001092BE001092BD00CB
:1009F00081115BC08091BC00853009F452C0863003
:100A000009F455C0813009F04EC0DF91CF911F919C
:100A10000F9108950CE910E0DFEF8091BC00837026
:100A200099F1C298F80180818FB980EF96DFB8986C
:100A30008EEF93DF80FF0CC09091BC00892F8170F6
:100A400090FF02C086E0CBCF95E09093BC00CACF68
:100A50008091BC008E7F8093BC00C1500F5F1F4F00
:100A6000C111DBCFC098C29AB29BFECF80E28A95BB
:100A7000F1F7C09A88E28A95F1F7759903C088E08A
:100A80008093BC0081E0AECFB89880EF66DFF801BC
:100A90008083C13021F4DFB98EEF5FDFDECF1FB876
:100AA000FBCF83E0B2CF84E0B0CF80E0AECF82E076
:100AB000ACCF1092BF001092BE001092BD00C09A41
:100AC000C29ABA9AB89A8FEF8FB98AE28DB980EF3D
:100AD0008EB95BDF65DF882331F06AE070E080E08B
:100AE00090E06FDDF6CF08959091BD00992399F0C5
:100AF0009091BE00903238F59091BF00E92FF0E060
:100B0000E456FF4F808381E0890F8093BF0080937C
:100B1000BE0081E008952091C3009091C2002F5F34
:100B2000921B9F7081F09091C3009F5F9F702091F6
:100B3000C2009217E1F3E92FF0E0E455FF4F808304
:100B40009093C300E6CF80E0089586B383FB8827A7
:100B500080F990E008950DD36091DB0090E080E093
:100B6000B8D26091DC0081E090E0B3D26091DA000D
:100B700082E090E0AED26091D90083E090E0A9C21B
:100B80001F920F920FB60F9211242F933F938F93C2
:100B90009F93AF93BF938091DF009091E000A0916D
:100BA000E100B091E2003091DE0026E0230F2D3706
:100BB00068F129E8230F0396A11DB11D2093DE00E3
:100BC0008093DF009093E000A093E100B093E200F7
:100BD0008091E3009091E400A091E500B091E600DF
:100BE0000196A11DB11D8093E3009093E400A093B2
:100BF000E500B093E600BF91AF919F918F913F9137
:100C00002F910F900FBE0F901F9018950296A11D67
:100C1000B11DD4CF1F920F920FB60F9211242F93B4
:100C20008F939F93EF93FF938091C400823009F4D8
:100C30005EC078F4882349F1813009F43EC0FF9109
:100C4000EF919F918F912F910F900FBE0F901F905A
:100C50001895843009F451C048F1853081F784E05B
:100C60008093C4009FB18091C1008F5F8F702091ED
:100C7000C000281709F446C08093C100E091C1006C
:100C8000F0E0E456FF4F90830BC08FB1882319F03A
:100C90008FB1869571F4789B07C081E08093C40082
:100CA0001FB8B89A8EE721C084E0F8CF8FB18823AF
:100CB00021F0B89888EA8DB917C08091C200909150
:100CC000C3009817B1F38091C2008F5F8F7080933B
:100CD000C200E091C200F0E0E455FF4F80818FB97F
:100CE00082E08093C400B89A80E78EB9A8CF83E0F1
:100CF0008093C400B8981FB8D5CF85E08093C40016
:100D0000B898F2CFB898CECF1F920F920FB60F922D
:100D100011248F931092C400B898B29B04C0B09B6A
:100D2000FCCF88EA01C088EF8DB980EF8EB98F9132
:100D30000F900FBE0F901F901895FC01019000209E
:100D4000E9F73197AF01481B590BBC018CEE90E0DD
:100D500062CC0F931F93CF93DF93EFDFEC016DE035
:100D60008CEE90E080DC8C016AE08CEE90E07BDC25
:100D7000C00FD11F8C0F9D1FDF91CF911F910F913D
:100D800008958F929F92AF92BF92CF92DF92EF928F
:100D9000FF920F931F93CF93DF93CDB7DEB7A19749
:100DA0000FB6F894DEBF0FBECDBFC82ED12CF12CEC
:100DB000E12C19A28E010F5D1F4F8AE0882E912C25
:100DC000A12CB12CC701B601A5019401AAD1822F93
:100DD0006AE08DD19C2D981B892F9A3004F5805D97
:100DE000F80182938F0169017A01C114D104E104F1
:100DF000F10441F7CF01A1DFA1960FB6F894DEBF51
:100E00000FBECDBFDF91CF911F910F91FF90EF905B
:100E1000DF90CF90BF90AF909F908F900895895CA6
:100E2000DFCF83E08ABD83BF789489B7826089BFB2
:100E300080E48CBD8FEF8DBD87EC80BF86E886B9DE
:100E40000FB6F894A89581B5886181BD11BC0FBE1D
:100E50008FB7F894BB98C39A8FBF77DE892B31F494
:100E600064E670E080E090E0ACDBFACF1092EB003B
:100E70001092EA0080E88093600088E0809361002F
:100E8000E091CB00F091CC00099531DCC1E2D5E0D6
:100E9000FE011491812F0FDC811104C007DC27DCD7
:100EA000812F09DC2196F5E0C732DF0789F7FEDBE9
:100EB000C0E080916100C817C0F46C2F80E01ADC9C
:100EC000809160009091E900182F191B61F08093C8
:100ED000E900F6DB80E4EFDBD0E080E0F6DBDF5F0B
:100EE0001D13FBCFE3DBCF5FE4CF60E080E002DCEB
:100EF000FEDB8FEAE0DBDADB8AE690E09093CF005E
:100F00008093CE0081E08093CD0084E894E09093BC
:100F1000D6008093D5001092D8001092D7008AEBAB
:100F200093E09093D2008093D1001092D40010925D
:100F3000D3001092D00090E080E0C3D0C82F8093FF
:100F4000DB0081E090E0BDD08093DC0082E090E0A7
:100F5000B8D08093DA0083E090E0B3D08093D900DA
:100F6000CC2319F0C150C093DB0085E790E0F1DE9F
:100F70008AE790E0EEDE80E890E0EBDE85E890E046
:100F8000DCDE8091DB00FDDE8AE890E0D6DE809139
:100F9000DC00F7DE80E990E0D0DE8091DA00F1DE5F
:100FA00085E990E0CADE8091D900EBDEC8EED3E09F
:100FB0006AE070E080E090E004DBC7DD892B31F56A
:100FC0008091DC00843119F08F5F8093DC00809188
:100FD000DA008F5F8093DA00843139F41092DA00FE
:100FE0008091D9008F5F8093D9008091DB0084319C
:100FF00019F08F5F8093DB00AFDD88E198E00FB6DA
:10100000F894A89581BD0FBE91BDFFCF219781F6C1
:101010006EDB8EEA50DB4ADBC8E1D9E4F894A89590
:10102000C1BDD1BD789485B7877E85BF85B7806205
:1010300085BF889585B78F7D85BF0FB6F894A89535
:1010400081B5886181BD11BC0FBE8091DD008F3FED
:1010500089F48091DC00882319F081508093DC00B2
:101060008091DB00843119F08F5F8093DB0074DDA9
:101070001092DD008091DD008F5F8093DD00CECF88
:10108000ECEEF0E01382128289E595E09093CC00BB
:101090008093CB0085EC94E09093C6008093C500CC
:1010A00084E795E09093C8008093C70080ED94E0BA
:1010B0009093CA008093C90086E690E09183808374
:1010C0000895E199FECF9FBB8EBBE09A99278DB31F
:1010D0000895262FE199FECF1CBA9FBB8EBB2DBB76
:1010E0000FB6F894E29AE19A0FBE01960895002493
:1010F00080FD060E660F11F08695D1F7802D0895BC
:101100000024552704C0080E591F880F991F009707
:1011100029F076956795B8F37105B9F7802D952F6D
:101120000895A1E21A2EAA1BBB1BFD010DC0AA1F28
:10113000BB1FEE1FFF1FA217B307E407F50720F040
:10114000A21BB30BE40BF50B661F771F881F991FBB
:101150001A9469F760957095809590959B01AC0104
:10116000BD01CF010895EE0FFF1F0590F491E02D12
:0E117000099481E090E0F89400C0F894FFCF5D
:10117E0080040000000055030B0389000002207E4E
:10118E007D001E0001205C4F2F00272D4F2D2700C4
:10119E00202F6F5C0048554E3D002046554E3D00B9
:0C11AE002058503D00204C564C3D0000E5
:00000001FF
