:1000000094C2B8C2B7C2B6C2B5C2A0C5B3C2B2C26A
:10001000B1C2B0C2AFC2AEC2ADC25CC6E1C50702DA
:100020000607050708030404070703060207060579
:100030000606060606060606020206070606070864
:100040000707070707070805070707070807070740
:100050000806070808070807070406060508030737
:100060000706070607060805050705080806070727
:100070000706050808080608060401040755005885
:100080000071006D0065005C0000000000000000D1
:1000900000000000000000F8003330100C06100CC7
:1000A0000600000000000040C07840C07840043FD7
:1000B00004043F04047088FC08301820FF211EF05F
:1000C00008F000E0180000211C031E211E00F008AB
:1000D00088700000001E2123241927211010160EFD
:1000E000000000E018040207182040020418E04055
:1000F000201807404080F08040400202010F0102BA
:1001000002000000F00000000101011F01010100D8
:10011000000080B07000000000000001010101013A
:1001200001000030300000008060180460180601F3
:10013000000000E010080810E00F102020100F1041
:1001400010F8000020203F20207008080888703038
:100150002824222130300888884830182020201197
:100160000E00C02010F800070424243F24F808885B
:1001700088080819212020110EE010888818000F27
:10018000112020110E380808C8380800003F000070
:10019000007088080888701C222121221CE01008A9
:1001A0000810E000312222110FC0C03030008080E2
:1001B00060008040201008010204081020404040E8
:1001C000404040400404040404040408102040801B
:1001D000002010080402017048080808F0000030F0
:1001E000360100C030C828E810E00718272423147F
:1001F0000B0000C038E0000000203C23020227383A
:100200002008F88888887000203F202020110EC028
:100210003008080808380718202020100808F808B7
:10022000080810E0203F202020100F08F88888E8F8
:100230000810203F202023201808F88888E808109C
:10024000203F2000030000C03008080838000718CD
:100250002020221E0208F808000008F808203F218C
:100260000101213F200808F8080820203F20200035
:10027000000808F80808C08080807F000008F8881F
:10028000C0281808203F200126382008F808000060
:100290000000203F202020203008F8F800F8F8085F
:1002A000203F003F003F2008F830C00008F8082039
:1002B0003F200007183F00E01008080810E00F106A
:1002C000202020100F08F808080808F0203F21011E
:1002D000010100E01008080810E00F18242438502D
:1002E0004F08F8888888887000203F2000030C3071
:1002F0002070880808083838202121221C18080896
:10030000F80808180000203F20000008F808000046
:1003100008F808001F202020201F0008788800000F
:10032000C83808000007380E010000F80800F8007F
:1003300008F8033C0700073C030818688080681829
:100340000820302C03032C30200838C800C8380897
:100350000000203F20000010080808C83808203896
:100360002621202018FE0202027F4040400C30C0AF
:100370000000000000010638C0020202FE0000403A
:1003800040407F0000040202020400000000000060
:10039000000000000000008080808080808080025B
:1003A00002040000000080808080000019242222C6
:1003B000223F2008F80080800000003F112020111B
:1003C0000E0000808080000E11202020110000808F
:1003D0008088F8000E112020103F2000808080804F
:1003E000001F22222222138080F088888818202073
:1003F0003F202000000080808080806B9494949344
:100400006008F8008080800000203F210000203F2D
:1004100020809898000020203F202000008098989D
:10042000C08080807F08F80000808080203F240208
:100430002D30200808F8000020203F2020808080F8
:100440008080808000203F20003F20003F8080008F
:100450008080800000203F210000203F200080801D
:100460008080001F202020201F80800080800000CE
:1004700080FFA12020110E000080808080000E11DE
:100480002020A0FF808080800080808020203F216D
:10049000200001008080808080332424242419805F
:1004A00080E0808000001F2020808000000080808D
:1004B00000001F202020103F2080808000008080CE
:1004C0008000010E300806010080800080008080DE
:1004D000800F300C030C300F008080008080802063
:1004E000312E0E3120808080000080808080818EBF
:1004F000701806010080808080808021302C2221AD
:1005000030807C0202003F4040FFFF02027C8040BE
:10051000403F000601010202040400000000000048
:1005200000C8A1AD308D14000D0811241FBECFE509
:10053000D2E0DEBFCDBF20E0AAE7B0E001C01D924F
:10054000AF3EB207E1F710E0A0E6B0E0ECE5F5E180
:1005500002C005900D92AA37B107D9F712E0C5E99C
:10056000D2E003C02197FE01EFD6C439D107D1F7FD
:10057000D6D3F2C745CD3FB7F8948091E200909171
:10058000E300A091E400B091E50022B708B601FEB7
:1005900005C02F3F19F00196A11DB11D3FBFBA2F15
:1005A000A92F982F8827BC01CD01620F711D811DD5
:1005B000911D43E0660F771F881F991F4A95D1F759
:1005C0000895CF92DF92EF92FF92CF93DF936B016A
:1005D0007C01D1DFEB01CFDF6C1B7D0B683E7340EC
:1005E000A0F0C114D104E104F10439F4DF91CF91FA
:1005F000FF90EF90DF90CF90089581E0C81AD10866
:10060000E108F108C851DC4FE6CFC114D104E10480
:10061000F10409F7EBCFCF92DF92EF92FF920F93A5
:100620001F93CF93DF936C01EB017B01E40EF51E6A
:1006300010E000E0CE15DF0561F06991D601ED9183
:10064000FC910190F081E02DC6010995080F191F5A
:10065000F1CFC801DF91CF911F910F91FF90EF90E3
:10066000DF90CF900895E091B300F091B400209115
:10067000B5003091B600A90141705527309719F4A3
:100680004115510579F035952795820F931F452B1C
:1006900041F0DC012D913C91E20FF31F0190F081BC
:1006A000E02D099581E090E00895DDCFE091A7006D
:1006B000F091A8000994E091A500F091A60009949A
:1006C000E091A300F091A4000994CF93C82FF3DF29
:1006D000811106C0EBDFF4DF80E4EDDF8C2FEBDF70
:1006E0008091E6008F5F8093E600CF910895E8DF68
:1006F00080E0E1CF0F931F93CF93DF93082F162F46
:10070000D091EA00D80FC091E900C60FC770C06B46
:10071000EEDF8C2FD0DF8D2F82958F708061CBDF45
:100720008D2F8F70C8DFC2DF0093E8001093E700C1
:100730001092E600DF91CF911F910F910895809163
:10074000AE0001C0660F8A95EAF79091E700960F18
:100750009093E70080916100482F461B550B94173A
:10076000150621F01CF0861B8093E7006091E700DE
:1007700080E0C0CFAF92BF92CF92DF92EF92FF9214
:100780000F931F93CF93DF93A091AC00B091AD0076
:1007900012961C911297C62FD0E011110DC014961D
:1007A0002C911497AE01421B51091896ED91FC91C2
:1007B0001997E40FF51F14911396BC900091AB00AC
:1007C000E12EF12C4091E8002091600030E02E19DC
:1007D0003F094217130619F014F06B2DB0DF80911A
:1007E000E8008E0D9F2D911D800F911D20916000BE
:1007F000281719060CF400E0A091AC00B091AD00F0
:1008000014968C911497C81BD10971F012968C9193
:10081000129713966C91139770E08823C9F090E0BB
:1008200047D5BE0145D5EC01AB2C4ADF80E443DF60
:10083000CE01282F2C1B211708F438C0CE0DDF1D48
:10084000D12C0D1509F443C080E03FDFD394F9CFDC
:10085000AE01F4E056954795FA95E1F730E020E0D7
:1008600090E080E04217530781F06901CC0CDD1C59
:100870001696ED91FC911797EC0DFD1DC590D49047
:100880008C0D9D1D2F5F3F4FEDCF9E01207F2C17BC
:100890003D0740F61896ED91FC911997E20FF31F72
:1008A000E4918E0F911D2F5F3F4FF1CF6C012FEF21
:1008B000C21AD20AE091AC00F091AD000190F08133
:1008C000E02DE80FF91F849100DFC601B2CFEEDE04
:1008D0006091E70031E06F5F8091E8003A1528F001
:1008E0006B198091E800810F800F04DFAA94A1109A
:1008F0009CCFDF91CF911F910F91FF90EF90DF90F0
:10090000CF90BF90AF9008956D3031F1E091AC0081
:10091000F091AD006A3011F4638111CF2481621728
:10092000D8F025812617C0F02091B1003091B20097
:10093000A90155954795840F951FE091AF00F0915F
:10094000B00020FF08C0DC012D913C91E20FF31FA5
:100950000190F081E02D099408958EB938E28BE280
:1009600020E2932F9A95F1F78DB9B29BFECF922F8B
:100970009A95F1F78DB9769BF4CF88E28A95F1F7D5
:100980008FB19FEF9FB9B89A089581E080939B0043
:1009900098E790937A0080939D0080939C0008953F
:1009A0000F931F93CF93DF93C0919C0081E08093BE
:1009B0009A0080917A0080FD03C083E080939A00C2
:1009C000C29AB29BFECF88E28A95F1F7C09880E286
:1009D0008A95F1F7C298C09A77991CC087E08093F6
:1009E0009A0080E010929D0010929C0010929B0053
:1009F00081115BC080919A00853009F452C0863025
:100A000009F455C0813009F04EC0DF91CF911F919C
:100A10000F9108950AE710E0DFEF80919A0083704C
:100A200099F1C298F80180818FB980EF96DFB8986C
:100A30008EEF93DF80FF0CC090919A00892F817018
:100A400090FF02C086E0CBCF95E090939A00CACF8A
:100A500080919A008E7F80939A00C1500F5F1F4F44
:100A6000C111DBCFC098C29AB29BFECF80E28A95BB
:100A7000F1F7C09A88E28A95F1F7759903C088E08A
:100A800080939A0081E0AECFB89880EF66DFF801DE
:100A90008083C13021F4DFB98EEF5FDFDECF1FB876
:100AA000FBCF83E0B2CF84E0B0CF80E0AECF82E076
:100AB000ACCF10929D0010929C0010929B00C09AA7
:100AC000C29ABA9AB89A8FEF8FB98AE28DB980EF3D
:100AD0008EB95BDF65DF882331F06AE070E080E08B
:100AE00090E06FDDF6CF089590919B00992399F0E7
:100AF00090919C00903238F590919D00E92FF0E0A4
:100B0000E658FF4F808381E0890F80939D0080939A
:100B10009C0081E008952091A1009091A0002F5F9A
:100B2000921B9F7081F09091A1009F5F9F70209118
:100B3000A0009217E1F3E92FF0E0E657FF4F808322
:100B40009093A100E6CF80E0089502D51F920F9206
:100B50000FB60F9211242F933F938F939F93AF93D0
:100B6000BF938091DE009091DF00A091E000B091F2
:100B7000E1003091DD0026E0230F2D3768F129E8F0
:100B8000230F0396A11DB11D2093DD008093DE008D
:100B90009093DF00A093E000B093E1008091E20029
:100BA0009091E300A091E400B091E5000196A11DB1
:100BB000B11D8093E2009093E300A093E400B09312
:100BC000E500BF91AF919F918F913F912F910F9031
:100BD0000FBE0F901F9018950296A11DB11DD4CF86
:100BE0001F920F920FB60F9211242F938F939F9302
:100BF000EF93FF938091A200823009F45EC078F4F5
:100C0000882349F1813009F43EC0FF91EF919F9113
:100C10008F912F910F900FBE0F901F9018958430D9
:100C200009F451C048F1853081F784E08093A20037
:100C30009FB180919F008F5F8F7020919E00281739
:100C400009F446C080939F00E0919F00F0E0E658D1
:100C5000FF4F90830BC08FB1882319F08FB1869519
:100C600071F4789B07C081E08093A2001FB8B89A06
:100C70008EE721C084E0F8CF8FB1882321F0B898A7
:100C800088EA8DB917C08091A0009091A1009817B3
:100C9000B1F38091A0008F5F8F708093A000E091EE
:100CA000A000F0E0E657FF4F80818FB982E080938B
:100CB000A200B89A80E78EB9A8CF83E08093A20003
:100CC000B8981FB8D5CF85E08093A200B898F2CF2E
:100CD000B898CECF1F920F920FB60F9211248F9318
:100CE0001092A200B898B29B04C0B09BFCCF88EAD7
:100CF00001C088EF8DB980EF8EB98F910F900FBE34
:100D00000F901F901895FC0101900020E9F7319792
:100D1000AF01481B590BBC018BEE90E07CCCCF930C
:100D2000DF93CDB7DEB7A5970FB6F894DEBF0FBE41
:100D3000CDBF83E08ABD83BF789489B7826089BFC5
:100D400080E48CBD8FEF8DBD87EC80BF86E886B9CF
:100D50008FB7F894BB98C39A8FBFB39B43C01092D0
:100D6000EA001092E90080E88093600088E08093B8
:100D70006100E091A900F091AA000995B8DC01E2B8
:100D800015E037E2C32E35E0D32EF801F4908F2D15
:100D900092DC811104C08ADCAADC8F2D8CDC0F5F11
:100DA0001F4FC016D10689F781DC10E080916100E9
:100DB0001817F0F4612F80E09DDC80916000909125
:100DC000E800F82EF91A61F08093E80079DC80E4FD
:100DD00072DC00E080E079DC0F5FF012FBCF66DCB4
:100DE0001F5FE4CF64E670E080E090E0EADBFACFDA
:100DF00060E080E07FDC7BDC8FEA5DDC57DC8AE64C
:100E000090E09093AD008093AC0081E08093AB00C4
:100E100084E894E09093B4008093B3001092B600FD
:100E20001092B5008AEB93E09093B0008093AF00EE
:100E30001092B2001092B1001092AE0025E030E0A6
:100E400040E050E06091B8007091B9008091BA0024
:100E50009091BB003ED260587F4F8F4F9F4F672FBE
:100E6000782F892F992787FD9A95FED020E030E0D2
:100E700048EC52E4D4D26B017C0120E030E0A901BF
:100E8000EDD087FF08C06DE28BEE90E0ECDBF7FA67
:100E9000F094F7F8F0942AE037ED43EA5BE3C701FA
:100EA000B60159D24B015C0127D3162FC72ED82E7D
:100EB000092FD8D09B01AC01C501B4014BD24B0125
:100EC0005C0119A27E01F1E2EF0EF11CEAA2FBA285
:100ED0009AE0492E512C612C712C612F7C2D8D2D87
:100EE000902FA30192010ED2822F6AE0D8D1181B55
:100EF0001A300CF064C0105DF70112937F01122FBD
:100F0000C32ED42E052F232B242B252B31F7CF01D5
:100F1000FADE85E790E0F7DE03E08AE0482E512C08
:100F2000612C712C015009F44EC020E030E040E209
:100F300051E4C501B401F7D04B015C01D8D26B017B
:100F4000770FEE08FF08CCA2DDA23E2C2F2CF7FE77
:100F50000CC06DE28BEE90E086DBF094E094D094D0
:100F6000C094C11CD11CE11CF11C1C2D7D2DC7019E
:100F700019A2EAA0FBA0612FA3019201C3D1822F85
:100F80006AE08DD1181B1A30E4F4105DF70112935A
:100F90007F01122F732FCA01232B242B252B59F7E6
:100FA000CF01B1DE6CA17DA1832D922D5DD09B017F
:100FB000AC01C501B401CED14B015C01B3CF195CCA
:100FC0009BCF195CE3CF87E790E09DDE6DE08BEE71
:100FD00090E049DB6AE08BEE90E045DB60E177E290
:100FE00080E090E0EEDA83DB8EEA65DB5FDBF8948D
:100FF000A895789485B7877E85BF85B7806285BFC1
:10100000889585B78F7D85BF0FB6F894A89581B573
:10101000886181BD11BC0FBEE1CFEBEEF0E0138221
:10102000128289E595E09093AA008093A90085EC4F
:1010300094E09093A4008093A30084E795E09093BC
:10104000A6008093A50080ED94E09093A800809383
:10105000A70086E690E091838083089540D008F44D
:1010600081E00895E89409C097FB3EF4909580953F
:10107000709561957F4F8F4F9F4F9923A9F0F92F5E
:1010800096E9BB279395F695879577956795B795DC
:10109000F111F8CFFAF4BB0F11F460FF1BC06F5FC2
:1010A0007F4F8F4F9F4F16C0882311F096E911C0D4
:1010B000772321F09EE8872F762F05C0662371F0F5
:1010C00096E8862F70E060E02AF09A95660F771F09
:1010D000881FDAF7880F9695879597F90895990FE5
:1010E0000008550FAA0BE0E8FEEF16161706E807F2
:1010F000F907C0F012161306E407F50798F0621B13
:10110000730B840B950B39F40A2661F0232B242BE7
:10111000252B21F408950A2609F4A140A6958FEF06
:10112000811D811D08950AD080C071D028F076D02D
:1011300018F0952309F062C067C0ABC087D0A8F350
:101140009923D9F35523C9F3950F50E0551FAA27CA
:10115000EE27FF27BB2700240894679520F4E20FB1
:10116000F31FB41F0A1E220F331F441FAA1F6695C8
:10117000A9F7779530F4F30FB41F0A1E121E08F476
:101180006395330F441FAA1F221F769599F7879501
:1011900020F4B40F0A1E121E631F440FAA1F221F41
:1011A000331F8695A9F7862F712D602D11249F5727
:1011B00050408AF0E1F088234AF0EE0FFF1FBB1F7A
:1011C000661F771F881F91505040A9F79E3F510519
:1011D00070F014C05EC05F3FECF3983EDCF3869580
:1011E00077956795B795F795E7959F5FC1F7FE2BC4
:1011F000880F911D9695879597F9089597F99F67A0
:1012000080E870E060E008959FEF80EC089500248E
:101210000A941616170618060906089500240A945B
:1012200012161306140605060895092E0394000CE1
:1012300011F4882352F0BB0F40F4BF2B11F460FF70
:1012400004C06F5F7F4F8F4F9F4F089557FD905899
:10125000440F551F59F05F3F71F04795880F97FB7A
:10126000991F61F09F3F79F0879508951216130634
:101270001406551FF2CF4695F1DF08C01616170663
:101280001806991FF1CF8695710561050894089598
:10129000E894BB2766277727CB0197F908950024A8
:1012A00080FD060E660F11F08695D1F7802D08950A
:1012B0000024552704C0080E591F880F991F009756
:1012C00029F076956795B8F37105B9F7802D952FBC
:1012D0000895EE27FF27AA27BB2708C0A20FB31F38
:1012E000E41FF51F220F331F441F551F9695879546
:1012F0007795679598F37040A9F7009799F7BD0126
:10130000CF010895A1E21A2EAA1BBB1BFD010DC03F
:10131000AA1FBB1FEE1FFF1FA217B307E407F507A5
:1013200020F0A21BB30BE40BF50B661F771F881F81
:10133000991F1A9469F760957095809590959B0117
:10134000AC01BD01CF010895EE0FFF1F0590F49190
:10135000E02D09945058BB27AA270ED066CF57DF3F
:1013600030F05CDF20F031F49F3F11F41EF44CCFDD
:101370000EF4E095E7FB42CFE92F68DF80F3BA1760
:10138000620773078407950718F071F49EF580CF04
:101390000EF4E0950B2EBA2FA02D0B01B901900190
:1013A0000C01CA01A0011124FF27591B99F0593FD4
:1013B00050F4503E68F11A16F040A22F232F342F1C
:1013C0004427585FF3CF469537952795A795F0406A
:1013D0005395C9F77EF41F16BA0B620B730B840B7F
:1013E000BAF09150A1F0FF0FBB1F661F771F881F37
:1013F000C2F70EC0BA0F621F731F841F48F487958F
:1014000077956795B795F7959E3F08F0B3CF93957D
:10141000880F08F09927EE0F9795879508950CD0BF
:1014200004CFFCDE40F0F3DE30F021F45F3F19F032
:10143000E5CE51112ECFE8CE09DF98F39923C9F3F9
:101440005523B1F3951B550BBB27AA2762177307CA
:10145000840738F09F5F5F4F220F331F441FAA1F7E
:10146000A9F333D00E2E3AF0E0E830D0915050403E
:10147000E695001CCAF729D0FE2F27D0660F771FEC
:10148000881FBB1F261737074807AB07B0E809F0CE
:10149000BB0B802DBF01FF2793585F4F2AF09E3F63
:1014A000510568F0ABCEF5CE5F3FECF3983EDCF330
:1014B000869577956795B795F7959F5FC9F7880FDC
:1014C000911D9695879597F90895E1E0660F771F2E
:1014D000881FBB1F621773078407BA0720F0621BBF
:1014E000730B840BBA0BEE1F88F7E095089504D0B8
:1014F0006894B111CECE0895B1DE88F09F5790F078
:10150000B92F9927B751A0F0D1F0660F771F881F28
:10151000991F1AF0BA95C9F712C0B13081F0B8DE40
:10152000B1E00895B5CE672F782F8827B85F39F0DE
:10153000B93FCCF3869577956795B395D9F73EF487
:1015400090958095709561957F4F8F4F9F4F08952F
:0C15500081E090E0F89400C0F894FFCF18
:10155C0080040000000055030B0389000002207E6C
:0A156C007D001E00012E0020430048
:00000001FF
